:1000000000308A003C280000831A0A28A400030E4E
:10001000A5000F288312A400030EA500A5140A084A
:10002000AB008A018313A40E0408A6002008A700D1
:100030002108A8002208A9002308AA0083120B1E89
:1000400023288B1842288C308400001C29280C1887
:100050005728260884002708A0002808A10029089E
:10006000A2002A08A3002B088A00250E8300831211
:10007000240EA51883160900FF2383169000003074
:100080008A00A2288316851083128514AC0183167A
:100090000510831205143530900083160C140B30B4
:1000A00083128F00DC308E008B108A112928AC0A55
:1000B0002D1C67282C08773C03186128AC012D10F3
:1000C00066288316051001308312850675282C08D2
:1000D000093C03187528AC0183168510831285101E
:1000E000900183160510831205100C108A1129281F
:1000F0003E308316850083121F1383161F109F1036
:100100001F119F1183121F100730990083160508D5
:10011000850003308312A000A00B8C2819088C11D5
:100120008316990183120B1683160117C0308312B0
:100130008B04831685108312851483160510831291
:100140000514B12884011F308305AC012D141F1341
:1001500083161F109F101F119F11073083129900E3
:060160007828B1286300BD
:0207FE002C3499
:02400E00B43FBD
:00000001FF
;PIC12F675
;CRC=9AB2  CREATED="11-sep-15 15:49"
